{
  "contractName": "FileUpload",
  "abi": [
    {
      "constant": false,
      "inputs": [
        {
          "internalType": "string",
          "name": "name",
          "type": "string"
        },
        {
          "internalType": "string",
          "name": "fileHash",
          "type": "string"
        }
      ],
      "name": "storeFile",
      "outputs": [],
      "payable": false,
      "stateMutability": "nonpayable",
      "type": "function"
    },
    {
      "constant": true,
      "inputs": [],
      "name": "getFiles",
      "outputs": [
        {
          "components": [
            {
              "internalType": "string",
              "name": "name",
              "type": "string"
            },
            {
              "internalType": "string",
              "name": "fileHash",
              "type": "string"
            }
          ],
          "internalType": "struct FileUpload.File[]",
          "name": "",
          "type": "tuple[]"
        }
      ],
      "payable": false,
      "stateMutability": "view",
      "type": "function"
    }
  ],
  "bytecode": "0x608060405234801561001057600080fd5b5061066c806100206000396000f3fe608060405234801561001057600080fd5b50600436106100365760003560e01c806320de10701461003b5780632da96d7314610057575b600080fd5b61005560048036036100509190810190610394565b610075565b005b61005f6100f8565b60405161006c9190610506565b60405180910390f35b60006040518060400160405280848152602001838152509080600181540180825580915050906001820390600052602060002090600202016000909192909190915060008201518160000190805190602001906100d392919061029b565b5060208201518160010190805190602001906100f092919061029b565b505050505050565b60606000805480602002602001604051908101604052809291908181526020016000905b828210156102925783829060005260206000209060020201604051806040016040529081600082018054600181600116156101000203166002900480601f0160208091040260200160405190810160405280929190818152602001828054600181600116156101000203166002900480156101d85780601f106101ad576101008083540402835291602001916101d8565b820191906000526020600020905b8154815290600101906020018083116101bb57829003601f168201915b50505050508152602001600182018054600181600116156101000203166002900480601f01602080910402602001604051908101604052809291908181526020018280546001816001161561010002031660029004801561027a5780601f1061024f5761010080835404028352916020019161027a565b820191906000526020600020905b81548152906001019060200180831161025d57829003601f168201915b5050505050815250508152602001906001019061011c565b50505050905090565b828054600181600116156101000203166002900490600052602060002090601f016020900481019282601f106102dc57805160ff191683800117855561030a565b8280016001018555821561030a579182015b828111156103095782518255916020019190600101906102ee565b5b509050610317919061031b565b5090565b61033d91905b80821115610339576000816000905550600101610321565b5090565b90565b600082601f83011261035157600080fd5b813561036461035f82610555565b610528565b9150808252602083016020830185838301111561038057600080fd5b61038b8382846105d6565b50505092915050565b600080604083850312156103a757600080fd5b600083013567ffffffffffffffff8111156103c157600080fd5b6103cd85828601610340565b925050602083013567ffffffffffffffff8111156103ea57600080fd5b6103f685828601610340565b9150509250929050565b600061040c83836104c2565b905092915050565b600061041f82610591565b61042981856105b4565b93508360208202850161043b85610581565b8060005b8581101561047757848403895281516104588582610400565b9450610463836105a7565b925060208a0199505060018101905061043f565b50829750879550505050505092915050565b60006104948261059c565b61049e81856105c5565b93506104ae8185602086016105e5565b6104b781610618565b840191505092915050565b600060408301600083015184820360008601526104df8282610489565b915050602083015184820360208601526104f98282610489565b9150508091505092915050565b600060208201905081810360008301526105208184610414565b905092915050565b6000604051905081810181811067ffffffffffffffff8211171561054b57600080fd5b8060405250919050565b600067ffffffffffffffff82111561056c57600080fd5b601f19601f8301169050602081019050919050565b6000819050602082019050919050565b600081519050919050565b600081519050919050565b6000602082019050919050565b600082825260208201905092915050565b600082825260208201905092915050565b82818337600083830152505050565b60005b838110156106035780820151818401526020810190506105e8565b83811115610612576000848401525b50505050565b6000601f19601f830116905091905056fea365627a7a723158200b5e0298b50fe22213140ac4767a92360f643e1bd47fc25cc54fe8d14d456cca6c6578706572696d656e74616cf564736f6c63430005100040",
  "source": "// SPDX-License-Identifier: MIT\npragma solidity >=0.4.22 <0.9.0;\npragma experimental ABIEncoderV2;\n\ncontract FileUpload {\n    struct File {\n        string name;\n        string fileHash;\n    }\n    File[] files;\n\n    function storeFile(string memory name, string memory fileHash) public {\n        files.push(File(name, fileHash));\n    }\n\n    function getFiles() public view returns (File[] memory) {\n        return files;\n    }\n}\n",
  "sourcePath": "/Volumes/FAST/GitHub/get_lucky_dapp/dapp/contracts/FileUpload.sol",
  "compiler": {
    "name": "solc",
    "version": "0.5.16+commit.9c3226ce.Emscripten.clang"
  },
  "schemaVersion": "3.4.1",
  "updatedAt": "2021-07-09T15:51:46.013Z",
  "networkType": "ethereum",
  "devdoc": {
    "methods": {}
  },
  "userdoc": {
    "methods": {}
  }
}